:100000000C9434000C9449000C9449000C94490061
:100010000C9449000C9449000C9449000C9449003C
:100020000C9449000C9449000C9449000C9449002C
:100030000C9449000C9449000C9449000C9449001C
:100040000C9449000C9449000C9449000C9449000C
:100050000C9449000C9449000C9449000C944900FC
:100060000C9449000C94490011241FBECFEFD8E036
:10007000DEBFCDBF11E0A0E0B1E0E8E5F3E002C0F3
:1000800005900D92AE30B107D9F70E94BC000C94D8
:10009000AA010C9400002198299A24982C9A25985A
:1000A0002D9A08956F927F928F929F92AF92BF92F6
:1000B000CF92DF92EF92FF920F931F93DF93CF9334
:1000C00000D000D0CDB7DEB7809100019091010142
:1000D000A0910201B091030189839A83AB83BC8311
:1000E00081E090E00E948D01CC24DD24EE24FF24E9
:1000F00000E010E050E2B52E41E4642E32E4732EAD
:1001000023E4A22E4E010894811C911C199907C06A
:10011000CD2809F4698291E0C92ED12C03C0B9829F
:10012000CC24DD241C9907C0EF2809F47A8281E0F1
:10013000E82EF12C03C0BA82EE24FF241D9906C0DC
:10014000012B09F4AB8201E010E003C0BB8200E0A8
:1001500010E082E090E00E948D01C4010E947901CC
:10016000D5CF0E943C018CE090E00E948D0184E09C
:1001700091E00E94790108950E944B000E94B10015
:100180000E94520080E090E00895219A249A259AD6
:10019000579A0895219824982598579808955C9A1D
:1001A00086E08A95F1F700C089B1881F8827881FEB
:1001B000880F880F880F1D9984601C998260199997
:1001C00081605C98089580FF0CC0299A81FF0BC064
:1001D0002C9A82FF0AC02D9A83FF09C05F9A0C9463
:1001E000CF002998F3CF2C98F4CF2D98F5CF5F98B6
:1001F000F6CFCF93DF935A980E94CA00289A0E94A4
:10020000CF00C82F0E94CF0090E1C99FE0011124C8
:100210008C2B87FDF0CFDF91CF910895CF93C82F1E
:100220000E94F90028985A980E94C5008C2F829548
:100230008F700E94E3008C2F8F700E94E3000E9459
:10024000CA008FE0CF910C94E300CF93C82F0E9497
:10025000F90028985A9A0E94C5008C2F82958F70B9
:100260000E94E3008C2F8F700E94E3000E94CA005E
:100270008FE0CF910C94E30028985A985C98529A9A
:10028000209A549A0E94C5002FE58AEE90E02150F2
:1002900080409040E1F700C0000083E00E94E3004E
:1002A0008FE295E70197F1F700C0000083E00E941C
:1002B000E3008FE097E20197F1F700C0000083E0D0
:1002C0000E94E3008FE097E20197F1F700C0000081
:1002D00082E00E94E3000E94F90088E20E940E0181
:1002E00088E00E940E0181E00E940E0186E00C94DD
:1002F0000E01CF93DF93EC018991811103C0DF914F
:10030000CF9108950E942501F7CF90E4699FB00135
:100310001124862B80680C940E010C940E018F70B2
:100320008A3018F4805D0C942501895CFCCFCF9352
:10033000C82F82958F700E948F018C2FCF910C94C3
:100340008F01CF93C82F892F0E9497018C2FCF91B7
:080350000C949701F894FFCF13
:0E0358002020200047726F75702034320000A4
:00000001FF
